{
  "_format": "hh-sol-artifact-1",
  "contractName": "QuantumSwapPair",
  "sourceName": "contracts/core/QuantumSwapPair.sol",
  "abi": [
    {
      "inputs": [],
      "stateMutability": "nonpayable",
      "type": "constructor"
    },
    {
      "anonymous": false,
      "inputs": [
        {
          "indexed": true,
          "internalType": "address",
          "name": "owner",
          "type": "address"
        },
        {
          "indexed": true,
          "internalType": "address",
          "name": "spender",
          "type": "address"
        },
        {
          "indexed": false,
          "internalType": "uint256",
          "name": "value",
          "type": "uint256"
        }
      ],
      "name": "Approval",
      "type": "event"
    },
    {
      "anonymous": false,
      "inputs": [
        {
          "indexed": true,
          "internalType": "address",
          "name": "sender",
          "type": "address"
        },
        {
          "indexed": false,
          "internalType": "uint256",
          "name": "amount0",
          "type": "uint256"
        },
        {
          "indexed": false,
          "internalType": "uint256",
          "name": "amount1",
          "type": "uint256"
        },
        {
          "indexed": true,
          "internalType": "address",
          "name": "to",
          "type": "address"
        }
      ],
      "name": "Burn",
      "type": "event"
    },
    {
      "anonymous": false,
      "inputs": [
        {
          "indexed": true,
          "internalType": "address",
          "name": "sender",
          "type": "address"
        },
        {
          "indexed": false,
          "internalType": "uint256",
          "name": "amount0",
          "type": "uint256"
        },
        {
          "indexed": false,
          "internalType": "uint256",
          "name": "amount1",
          "type": "uint256"
        }
      ],
      "name": "Mint",
      "type": "event"
    },
    {
      "anonymous": false,
      "inputs": [
        {
          "indexed": true,
          "internalType": "address",
          "name": "sender",
          "type": "address"
        },
        {
          "indexed": false,
          "internalType": "uint256",
          "name": "amount0In",
          "type": "uint256"
        },
        {
          "indexed": false,
          "internalType": "uint256",
          "name": "amount1In",
          "type": "uint256"
        },
        {
          "indexed": false,
          "internalType": "uint256",
          "name": "amount0Out",
          "type": "uint256"
        },
        {
          "indexed": false,
          "internalType": "uint256",
          "name": "amount1Out",
          "type": "uint256"
        },
        {
          "indexed": true,
          "internalType": "address",
          "name": "to",
          "type": "address"
        }
      ],
      "name": "Swap",
      "type": "event"
    },
    {
      "anonymous": false,
      "inputs": [
        {
          "indexed": false,
          "internalType": "uint112",
          "name": "reserve0",
          "type": "uint112"
        },
        {
          "indexed": false,
          "internalType": "uint112",
          "name": "reserve1",
          "type": "uint112"
        }
      ],
      "name": "Sync",
      "type": "event"
    },
    {
      "anonymous": false,
      "inputs": [
        {
          "indexed": true,
          "internalType": "address",
          "name": "from",
          "type": "address"
        },
        {
          "indexed": true,
          "internalType": "address",
          "name": "to",
          "type": "address"
        },
        {
          "indexed": false,
          "internalType": "uint256",
          "name": "value",
          "type": "uint256"
        }
      ],
      "name": "Transfer",
      "type": "event"
    },
    {
      "inputs": [],
      "name": "DOMAIN_SEPARATOR",
      "outputs": [
        {
          "internalType": "bytes32",
          "name": "",
          "type": "bytes32"
        }
      ],
      "stateMutability": "view",
      "type": "function"
    },
    {
      "inputs": [],
      "name": "PERMIT_TYPEHASH",
      "outputs": [
        {
          "internalType": "bytes32",
          "name": "",
          "type": "bytes32"
        }
      ],
      "stateMutability": "view",
      "type": "function"
    },
    {
      "inputs": [
        {
          "internalType": "address",
          "name": "",
          "type": "address"
        },
        {
          "internalType": "address",
          "name": "",
          "type": "address"
        }
      ],
      "name": "allowance",
      "outputs": [
        {
          "internalType": "uint256",
          "name": "",
          "type": "uint256"
        }
      ],
      "stateMutability": "view",
      "type": "function"
    },
    {
      "inputs": [
        {
          "internalType": "address",
          "name": "spender",
          "type": "address"
        },
        {
          "internalType": "uint256",
          "name": "value",
          "type": "uint256"
        }
      ],
      "name": "approve",
      "outputs": [
        {
          "internalType": "bool",
          "name": "",
          "type": "bool"
        }
      ],
      "stateMutability": "nonpayable",
      "type": "function"
    },
    {
      "inputs": [
        {
          "internalType": "address",
          "name": "",
          "type": "address"
        }
      ],
      "name": "balanceOf",
      "outputs": [
        {
          "internalType": "uint256",
          "name": "",
          "type": "uint256"
        }
      ],
      "stateMutability": "view",
      "type": "function"
    },
    {
      "inputs": [
        {
          "internalType": "address",
          "name": "to",
          "type": "address"
        }
      ],
      "name": "burn",
      "outputs": [
        {
          "internalType": "uint256",
          "name": "amount0",
          "type": "uint256"
        },
        {
          "internalType": "uint256",
          "name": "amount1",
          "type": "uint256"
        }
      ],
      "stateMutability": "nonpayable",
      "type": "function"
    },
    {
      "inputs": [],
      "name": "decimals",
      "outputs": [
        {
          "internalType": "uint8",
          "name": "",
          "type": "uint8"
        }
      ],
      "stateMutability": "view",
      "type": "function"
    },
    {
      "inputs": [],
      "name": "factory",
      "outputs": [
        {
          "internalType": "address",
          "name": "",
          "type": "address"
        }
      ],
      "stateMutability": "view",
      "type": "function"
    },
    {
      "inputs": [],
      "name": "getReserves",
      "outputs": [
        {
          "internalType": "uint112",
          "name": "_reserve0",
          "type": "uint112"
        },
        {
          "internalType": "uint112",
          "name": "_reserve1",
          "type": "uint112"
        },
        {
          "internalType": "uint32",
          "name": "_blockTimestampLast",
          "type": "uint32"
        }
      ],
      "stateMutability": "view",
      "type": "function"
    },
    {
      "inputs": [
        {
          "internalType": "address",
          "name": "_token0",
          "type": "address"
        },
        {
          "internalType": "address",
          "name": "_token1",
          "type": "address"
        }
      ],
      "name": "initialize",
      "outputs": [],
      "stateMutability": "nonpayable",
      "type": "function"
    },
    {
      "inputs": [],
      "name": "kLast",
      "outputs": [
        {
          "internalType": "uint256",
          "name": "",
          "type": "uint256"
        }
      ],
      "stateMutability": "view",
      "type": "function"
    },
    {
      "inputs": [
        {
          "internalType": "address",
          "name": "to",
          "type": "address"
        }
      ],
      "name": "mint",
      "outputs": [
        {
          "internalType": "uint256",
          "name": "liquidity",
          "type": "uint256"
        }
      ],
      "stateMutability": "nonpayable",
      "type": "function"
    },
    {
      "inputs": [],
      "name": "name",
      "outputs": [
        {
          "internalType": "string",
          "name": "",
          "type": "string"
        }
      ],
      "stateMutability": "view",
      "type": "function"
    },
    {
      "inputs": [
        {
          "internalType": "address",
          "name": "",
          "type": "address"
        }
      ],
      "name": "nonces",
      "outputs": [
        {
          "internalType": "uint256",
          "name": "",
          "type": "uint256"
        }
      ],
      "stateMutability": "view",
      "type": "function"
    },
    {
      "inputs": [
        {
          "internalType": "address",
          "name": "owner",
          "type": "address"
        },
        {
          "internalType": "address",
          "name": "spender",
          "type": "address"
        },
        {
          "internalType": "uint256",
          "name": "value",
          "type": "uint256"
        },
        {
          "internalType": "uint256",
          "name": "deadline",
          "type": "uint256"
        },
        {
          "internalType": "uint8",
          "name": "v",
          "type": "uint8"
        },
        {
          "internalType": "bytes32",
          "name": "r",
          "type": "bytes32"
        },
        {
          "internalType": "bytes32",
          "name": "s",
          "type": "bytes32"
        }
      ],
      "name": "permit",
      "outputs": [],
      "stateMutability": "nonpayable",
      "type": "function"
    },
    {
      "inputs": [],
      "name": "price0CumulativeLast",
      "outputs": [
        {
          "internalType": "uint256",
          "name": "",
          "type": "uint256"
        }
      ],
      "stateMutability": "view",
      "type": "function"
    },
    {
      "inputs": [],
      "name": "price1CumulativeLast",
      "outputs": [
        {
          "internalType": "uint256",
          "name": "",
          "type": "uint256"
        }
      ],
      "stateMutability": "view",
      "type": "function"
    },
    {
      "inputs": [
        {
          "internalType": "address",
          "name": "to",
          "type": "address"
        }
      ],
      "name": "skim",
      "outputs": [],
      "stateMutability": "nonpayable",
      "type": "function"
    },
    {
      "inputs": [
        {
          "internalType": "uint256",
          "name": "amount0Out",
          "type": "uint256"
        },
        {
          "internalType": "uint256",
          "name": "amount1Out",
          "type": "uint256"
        },
        {
          "internalType": "address",
          "name": "to",
          "type": "address"
        },
        {
          "internalType": "bytes",
          "name": "data",
          "type": "bytes"
        }
      ],
      "name": "swap",
      "outputs": [],
      "stateMutability": "nonpayable",
      "type": "function"
    },
    {
      "inputs": [],
      "name": "symbol",
      "outputs": [
        {
          "internalType": "string",
          "name": "",
          "type": "string"
        }
      ],
      "stateMutability": "view",
      "type": "function"
    },
    {
      "inputs": [],
      "name": "sync",
      "outputs": [],
      "stateMutability": "nonpayable",
      "type": "function"
    },
    {
      "inputs": [],
      "name": "token0",
      "outputs": [
        {
          "internalType": "address",
          "name": "",
          "type": "address"
        }
      ],
      "stateMutability": "view",
      "type": "function"
    },
    {
      "inputs": [],
      "name": "token1",
      "outputs": [
        {
          "internalType": "address",
          "name": "",
          "type": "address"
        }
      ],
      "stateMutability": "view",
      "type": "function"
    },
    {
      "inputs": [],
      "name": "totalSupply",
      "outputs": [
        {
          "internalType": "uint256",
          "name": "",
          "type": "uint256"
        }
      ],
      "stateMutability": "view",
      "type": "function"
    },
    {
      "inputs": [
        {
          "internalType": "address",
          "name": "to",
          "type": "address"
        },
        {
          "internalType": "uint256",
          "name": "value",
          "type": "uint256"
        }
      ],
      "name": "transfer",
      "outputs": [
        {
          "internalType": "bool",
          "name": "",
          "type": "bool"
        }
      ],
      "stateMutability": "nonpayable",
      "type": "function"
    },
    {
      "inputs": [
        {
          "internalType": "address",
          "name": "from",
          "type": "address"
        },
        {
          "internalType": "address",
          "name": "to",
          "type": "address"
        },
        {
          "internalType": "uint256",
          "name": "value",
          "type": "uint256"
        }
      ],
      "name": "transferFrom",
      "outputs": [
        {
          "internalType": "bool",
          "name": "",
          "type": "bool"
        }
      ],
      "stateMutability": "nonpayable",
      "type": "function"
    }
  ],
  "bytecode": "0x60e06040526001600c553480156200001657600080fd5b506040518060400160405280600e81526020016d05175616e74756d53776170204c560941b81525060405180604001604052806004815260200163051534c560e41b815250601282600090816200006e9190620001da565b5060016200007d8382620001da565b5060ff81166080908152835160208086019190912060408051808201825260018152603160f81b9084015280517f8b73c3c69bb8fe3d512ecc4cf759cc79239f7b179b0ffacaa9a75d522b39400f938101939093528201527fc89efdaa54c0f20c7adf612882df0950f5a951637e0307cdcb4c672f298b8bc66060820152469181018290523060a082015260c00160408051601f19818403018152919052805160209091012060a05250503360c05250620002a69050565b634e487b7160e01b600052604160045260246000fd5b600181811c908216806200016057607f821691505b6020821081036200018157634e487b7160e01b600052602260045260246000fd5b50919050565b601f821115620001d557600081815260208120601f850160051c81016020861015620001b05750805b601f850160051c820191505b81811015620001d157828155600101620001bc565b5050505b505050565b81516001600160401b03811115620001f657620001f662000135565b6200020e816200020784546200014b565b8462000187565b602080601f8311600181146200024657600084156200022d5750858301515b600019600386901b1c1916600185901b178555620001d1565b600085815260208120601f198616915b82811015620002775788860151825594840194600190910190840162000256565b5085821015620002965787850151600019600388901b60f8161c191681555b5050505050600190811b01905550565b60805160a05160c051612739620002eb600039600081816103d501528181610c660152611eab0152600081816102d701526118700152600061029e01526127396000f3fe608060405234801561001057600080fd5b506004361061018e5760003560e01c80636a627842116100de578063a9059cbb11610097578063d21220a711610071578063d21220a7146103f7578063d505accf1461040a578063dd62ed3e1461041d578063fff6cae91461044857600080fd5b8063a9059cbb146103aa578063bc25cf77146103bd578063c45a0155146103d057600080fd5b80636a6278421461031e57806370a08231146103315780637464fc3d146103515780637ecebe001461035a57806389afcb441461037a57806395d89b41146103a257600080fd5b806323b872dd1161014b5780633644e515116101255780633644e515146102d2578063485cc955146102f95780635909c0d51461030c5780635a3d54931461031557600080fd5b806323b872dd1461025f57806330adf81f14610272578063313ce5671461029957600080fd5b8063022c0d9f1461019357806306fdde03146101a85780630902f1ac146101c6578063095ea7b3146101fa5780630dfe16811461021d57806318160ddd14610248575b600080fd5b6101a66101a13660046122d5565b610450565b005b6101b0610a7a565b6040516101bd919061236b565b60405180910390f35b6101ce610b08565b604080516001600160701b03948516815293909216602084015263ffffffff16908201526060016101bd565b61020d6102083660046123b9565b610b32565b60405190151581526020016101bd565b600654610230906001600160a01b031681565b6040516001600160a01b0390911681526020016101bd565b61025160025481565b6040519081526020016101bd565b61020d61026d3660046123e5565b610b9f565b6102517f6e71edae12b1b97f4d1f60370fef10105fa2faae0126114a169c64845d6126c981565b6102c07f000000000000000000000000000000000000000000000000000000000000000081565b60405160ff90911681526020016101bd565b6102517f000000000000000000000000000000000000000000000000000000000000000081565b6101a6610307366004612426565b610c5b565b61025160095481565b610251600a5481565b61025161032c36600461245f565b610d56565b61025161033f36600461245f565b60036020526000908152604090205481565b610251600b5481565b61025161036836600461245f565b60056020526000908152604090205481565b61038d61038836600461245f565b611021565b604080519283526020830191909152016101bd565b6101b061151e565b61020d6103b83660046123b9565b61152b565b6101a66103cb36600461245f565b611541565b6102307f000000000000000000000000000000000000000000000000000000000000000081565b600754610230906001600160a01b031681565b6101a661041836600461247c565b611804565b61025161042b366004612426565b600460209081526000928352604080842090915290825290205481565b6101a6611a87565b600c5460011461047b5760405162461bcd60e51b8152600401610472906124f3565b60405180910390fd5b6000600c558415158061048e5750600084115b6104da5760405162461bcd60e51b815260206004820152601960248201527f504149523a20494e53554646494349454e545f4f5554505554000000000000006044820152606401610472565b6000806104e5610b08565b5091509150816001600160701b03168710801561050a5750806001600160701b031686105b6105565760405162461bcd60e51b815260206004820152601c60248201527f504149523a20494e53554646494349454e545f4c4951554944495459000000006044820152606401610472565b6006546001600160a01b0386811691161480159061058257506007546001600160a01b03868116911614155b6105c15760405162461bcd60e51b815260206004820152601060248201526f504149523a20494e56414c49445f544f60801b6044820152606401610472565b861561067b5760065460405163a9059cbb60e01b81526001600160a01b038781166004830152602482018a90529091169063a9059cbb906044016020604051808303816000875af115801561061a573d6000803e3d6000fd5b505050506040513d601f19601f8201168201806040525081019061063e9190612519565b61067b5760405162461bcd60e51b815260206004820152600e60248201526d141052548e881513cc17d190525360921b6044820152606401610472565b85156107355760075460405163a9059cbb60e01b81526001600160a01b038781166004830152602482018990529091169063a9059cbb906044016020604051808303816000875af11580156106d4573d6000803e3d6000fd5b505050506040513d601f19601f820116820180604052508101906106f89190612519565b6107355760405162461bcd60e51b815260206004820152600e60248201526d141052548e881513cc57d190525360921b6044820152606401610472565b82156107a257604051636cdb227760e01b81526001600160a01b03861690636cdb22779061076f9033908b908b908a908a9060040161253b565b600060405180830381600087803b15801561078957600080fd5b505af115801561079d573d6000803e3d6000fd5b505050505b6006546040516370a0823160e01b81523060048201526000916001600160a01b0316906370a0823190602401602060405180830381865afa1580156107eb573d6000803e3d6000fd5b505050506040513d601f19601f8201168201806040525081019061080f9190612587565b6007546040516370a0823160e01b81523060048201529192506000916001600160a01b03909116906370a0823190602401602060405180830381865afa15801561085d573d6000803e3d6000fd5b505050506040513d601f19601f820116820180604052508101906108819190612587565b905060006108988a6001600160701b0387166125b6565b83116108a55760006108c2565b6108b88a6001600160701b0387166125b6565b6108c290846125b6565b905060006108d98a6001600160701b0387166125b6565b83116108e6576000610903565b6108f98a6001600160701b0387166125b6565b61090390846125b6565b905060008211806109145750600081115b6109605760405162461bcd60e51b815260206004820152601860248201527f504149523a20494e53554646494349454e545f494e50555400000000000000006044820152606401610472565b6109766001600160701b038087169088166125c9565b61098390620f42406125c9565b61098e8260036125c9565b61099a856103e86125c9565b6109a491906125b6565b6109af8460036125c9565b6109bb876103e86125c9565b6109c591906125b6565b6109cf91906125c9565b1015610a075760405162461bcd60e51b8152602060048201526007602482015266504149523a204b60c81b6044820152606401610472565b610a1384848888611bab565b60408051838152602081018390529081018c9052606081018b90526001600160a01b038a169033907fd78ad95fa46c994b6551d0da85fc275fe613ce37657fb8d5e3d130840159d8229060800160405180910390a350506001600c55505050505050505050565b60008054610a87906125e0565b80601f0160208091040260200160405190810160405280929190818152602001828054610ab3906125e0565b8015610b005780601f10610ad557610100808354040283529160200191610b00565b820191906000526020600020905b815481529060010190602001808311610ae357829003601f168201915b505050505081565b6008546001600160701b0380821692600160701b830490911691600160e01b900463ffffffff1690565b3360008181526004602090815260408083206001600160a01b038716808552925280832085905551919290917f8c5be1e5ebec7d5bd14f71427d1e84f3dd0314c0f7b2291e5b200ac8c7c3b92590610b8d9086815260200190565b60405180910390a35060015b92915050565b6001600160a01b03831660009081526004602090815260408083203384529091528120546000198114610c455782811015610c1c5760405162461bcd60e51b815260206004820152601d60248201527f45524332303a20494e53554646494349454e545f414c4c4f57414e43450000006044820152606401610472565b6001600160a01b0385166000908152600460209081526040808320338452909152902083820390555b610c50858585611d79565b506001949350505050565b336001600160a01b037f00000000000000000000000000000000000000000000000000000000000000001614610cc55760405162461bcd60e51b815260206004820152600f60248201526e2820a4a91d102327a92124a22222a760891b6044820152606401610472565b6006546001600160a01b0316158015610ce757506007546001600160a01b0316155b610d285760405162461bcd60e51b8152602060048201526012602482015271141052548e881053149150511657d253925560721b6044820152606401610472565b600680546001600160a01b039384166001600160a01b03199182161790915560078054929093169116179055565b6000600c54600114610d7a5760405162461bcd60e51b8152600401610472906124f3565b6000600c81905580610d8a610b08565b506006546040516370a0823160e01b81523060048201529294509092506000916001600160a01b03909116906370a0823190602401602060405180830381865afa158015610ddc573d6000803e3d6000fd5b505050506040513d601f19601f82011682018060405250810190610e009190612587565b6007546040516370a0823160e01b81523060048201529192506000916001600160a01b03909116906370a0823190602401602060405180830381865afa158015610e4e573d6000803e3d6000fd5b505050506040513d601f19601f82011682018060405250810190610e729190612587565b90506000610e896001600160701b038616846125b6565b90506000610ea06001600160701b038616846125b6565b90506000610eae8787611ea6565b6002549091506000819003610ef1576103e8610ed2610ecd85876125c9565b611ff0565b610edc91906125b6565b9850610eec61dead6103e8612059565b610f38565b610f356001600160701b038916610f0883876125c9565b610f12919061262a565b6001600160701b038916610f2684876125c9565b610f30919061262a565b612101565b98505b60008911610f945760405162461bcd60e51b815260206004820152602360248201527f504149523a20494e53554646494349454e545f4c49515549444954595f4d494e60448201526215115160ea1b6064820152608401610472565b610f9e8a8a612059565b610faa86868a8a611bab565b8115610fd357600854610fcf906001600160701b03600160701b8204811691166125c9565b600b555b604080518581526020810185905233917f4c209b5fc8ad50758f13e2e1088ba56a560dff690a1c6fef26394f4c03821c4f910160405180910390a250506001600c5550949695505050505050565b600080600c546001146110465760405162461bcd60e51b8152600401610472906124f3565b6000600c81905580611056610b08565b506006546007546040516370a0823160e01b81523060048201529395509193506001600160a01b039081169291169060009083906370a0823190602401602060405180830381865afa1580156110b0573d6000803e3d6000fd5b505050506040513d601f19601f820116820180604052508101906110d49190612587565b6040516370a0823160e01b81523060048201529091506000906001600160a01b038416906370a0823190602401602060405180830381865afa15801561111e573d6000803e3d6000fd5b505050506040513d601f19601f820116820180604052508101906111429190612587565b3060009081526003602052604081205491925061115f8888611ea6565b60025490915060008190036111a85760405162461bcd60e51b815260206004820152600f60248201526e504149523a204e4f5f535550504c5960881b6044820152606401610472565b806111b386856125c9565b6111bd919061262a565b9a50806111ca85856125c9565b6111d4919061262a565b995060008b1180156111e6575060008a115b61123e5760405162461bcd60e51b815260206004820152602360248201527f504149523a20494e53554646494349454e545f4c49515549444954595f42555260448201526213915160ea1b6064820152608401610472565b6112483084612119565b60405163a9059cbb60e01b81526001600160a01b038d81166004830152602482018d905288169063a9059cbb906044016020604051808303816000875af1158015611297573d6000803e3d6000fd5b505050506040513d601f19601f820116820180604052508101906112bb9190612519565b6113005760405162461bcd60e51b8152602060048201526016602482015275141052548e881514905394d191548c17d1905253115160521b6044820152606401610472565b60405163a9059cbb60e01b81526001600160a01b038d81166004830152602482018c905287169063a9059cbb906044016020604051808303816000875af115801561134f573d6000803e3d6000fd5b505050506040513d601f19601f820116820180604052508101906113739190612519565b6113b85760405162461bcd60e51b8152602060048201526016602482015275141052548e881514905394d191548c57d1905253115160521b6044820152606401610472565b6040516370a0823160e01b81523060048201526001600160a01b038816906370a0823190602401602060405180830381865afa1580156113fc573d6000803e3d6000fd5b505050506040513d601f19601f820116820180604052508101906114209190612587565b6040516370a0823160e01b81523060048201529095506001600160a01b038716906370a0823190602401602060405180830381865afa158015611467573d6000803e3d6000fd5b505050506040513d601f19601f8201168201806040525081019061148b9190612587565b935061149985858b8b611bab565b81156114c2576008546114be906001600160701b03600160701b8204811691166125c9565b600b555b604080518c8152602081018c90526001600160a01b038e169133917fdccd412f0b1252819cb1fd330b93224ca42612892bb3f4f789976e6d81936496910160405180910390a35050505050505050506001600c81905550915091565b60018054610a87906125e0565b6000611538338484611d79565b50600192915050565b600c546001146115635760405162461bcd60e51b8152600401610472906124f3565b6000600c8190556006546007546001600160a01b039182169291169080611588610b08565b506040516370a0823160e01b815230600482015291935091506001600160a01b0385169063a9059cbb9087906001600160701b0386169084906370a0823190602401602060405180830381865afa1580156115e7573d6000803e3d6000fd5b505050506040513d601f19601f8201168201806040525081019061160b9190612587565b61161591906125b6565b6040516001600160e01b031960e085901b1681526001600160a01b03909216600483015260248201526044016020604051808303816000875af1158015611660573d6000803e3d6000fd5b505050506040513d601f19601f820116820180604052508101906116849190612519565b6116c35760405162461bcd60e51b815260206004820152601060248201526f141052548e8814d2d2534c17d190525360821b6044820152606401610472565b6040516370a0823160e01b81523060048201526001600160a01b0384169063a9059cbb9087906001600160701b0385169084906370a0823190602401602060405180830381865afa15801561171c573d6000803e3d6000fd5b505050506040513d601f19601f820116820180604052508101906117409190612587565b61174a91906125b6565b6040516001600160e01b031960e085901b1681526001600160a01b03909216600483015260248201526044016020604051808303816000875af1158015611795573d6000803e3d6000fd5b505050506040513d601f19601f820116820180604052508101906117b99190612519565b6117f85760405162461bcd60e51b815260206004820152601060248201526f141052548e8814d2d2534c57d190525360821b6044820152606401610472565b50506001600c55505050565b834211156118545760405162461bcd60e51b815260206004820152601e60248201527f45524332303a205045524d49545f444541444c494e455f4558504952454400006044820152606401610472565b6001600160a01b038716600090815260056020526040812080547f0000000000000000000000000000000000000000000000000000000000000000917f6e71edae12b1b97f4d1f60370fef10105fa2faae0126114a169c64845d6126c9918b918b918b91876118c28361263e565b909155506040805160208101969096526001600160a01b0394851690860152929091166060840152608083015260a082015260c0810187905260e0016040516020818303038152906040528051906020012060405160200161193b92919061190160f01b81526002810192909252602282015260420190565b60408051601f198184030181528282528051602091820120600080855291840180845281905260ff88169284019290925260608301869052608083018590529092509060019060a0016020604051602081039080840390855afa1580156119a6573d6000803e3d6000fd5b5050604051601f1901519150506001600160a01b038116158015906119dc5750886001600160a01b0316816001600160a01b0316145b611a205760405162461bcd60e51b8152602060048201526015602482015274115490cc8c0e881253959053125117d41154935255605a1b6044820152606401610472565b6001600160a01b038981166000818152600460209081526040808320948d16808452948252918290208b905590518a81527f8c5be1e5ebec7d5bd14f71427d1e84f3dd0314c0f7b2291e5b200ac8c7c3b925910160405180910390a3505050505050505050565b600c54600114611aa95760405162461bcd60e51b8152600401610472906124f3565b6000600c556006546040516370a0823160e01b8152306004820152611ba4916001600160a01b0316906370a0823190602401602060405180830381865afa158015611af8573d6000803e3d6000fd5b505050506040513d601f19601f82011682018060405250810190611b1c9190612587565b6007546040516370a0823160e01b81523060048201526001600160a01b03909116906370a0823190602401602060405180830381865afa158015611b64573d6000803e3d6000fd5b505050506040513d601f19601f82011682018060405250810190611b889190612587565b6008546001600160701b0380821691600160701b900416611bab565b6001600c55565b6001600160701b038411801590611bc957506001600160701b038311155b611c065760405162461bcd60e51b815260206004820152600e60248201526d504149523a204f564552464c4f5760901b6044820152606401610472565b6008544290600090611c2590600160e01b900463ffffffff1683612657565b905060008163ffffffff16118015611c4557506001600160701b03841615155b8015611c5957506001600160701b03831615155b15611ce1578063ffffffff16611c7885611c72866121e2565b90612226565b51611c8c91906001600160e01b03166125c9565b60096000828254611c9d919061267b565b909155505063ffffffff8116611cb684611c72876121e2565b51611cca91906001600160e01b03166125c9565b600a6000828254611cdb919061267b565b90915550505b6008805463ffffffff8416600160e01b026001600160e01b036001600160701b03898116600160701b9081026001600160e01b03199095168c83161794909417918216831794859055604080519382169282169290921783529290930490911660208201527f1c411e9a96e071241c2f21f7726b17ae89e3cab4c78be50e062b03a9fffbbad1910160405180910390a1505050505050565b6001600160a01b038216611dcf5760405162461bcd60e51b815260206004820152601760248201527f45524332303a205452414e534645525f544f5f5a45524f0000000000000000006044820152606401610472565b6001600160a01b03831660009081526003602052604090205481811015611e385760405162461bcd60e51b815260206004820152601b60248201527f45524332303a20494e53554646494349454e545f42414c414e434500000000006044820152606401610472565b6001600160a01b0380851660008181526003602052604080822086860390559286168082529083902080548601905591517fddf252ad1be2c89b69c2b068fc378daa952ba7f163c4a11628f55a4df523b3ef90611e989086815260200190565b60405180910390a350505050565b6000807f00000000000000000000000000000000000000000000000000000000000000006001600160a01b031663017e7e586040518163ffffffff1660e01b8152600401602060405180830381865afa158015611f07573d6000803e3d6000fd5b505050506040513d601f19601f82011682018060405250810190611f2b919061268e565b600b546001600160a01b038216158015945091925090611fdc578015611fd7576000611f66610ecd6001600160701b038088169089166125c9565b90506000611f7383611ff0565b905080821115611fd4576000611f8982846125b6565b600254611f9691906125c9565b9050600082611fa68560056125c9565b611fb0919061267b565b90506000611fbe828461262a565b90508015611fd057611fd08782612059565b5050505b50505b611fe8565b8015611fe8576000600b555b505092915050565b60008160000361200257506000919050565b600061200f60028461262a565b61201a90600161267b565b90508291505b8181101561205357905080600281612038818661262a565b612042919061267b565b61204c919061262a565b9050612020565b50919050565b6001600160a01b0382166120a55760405162461bcd60e51b815260206004820152601360248201527245524332303a204d494e545f544f5f5a45524f60681b6044820152606401610472565b60028054820190556001600160a01b0382166000818152600360209081526040808320805486019055518481527fddf252ad1be2c89b69c2b068fc378daa952ba7f163c4a11628f55a4df523b3ef910160405180910390a35050565b60008183106121105781612112565b825b9392505050565b6001600160a01b038216600090815260036020526040902054818110156121825760405162461bcd60e51b815260206004820152601b60248201527f45524332303a204255524e5f455843454544535f42414c414e434500000000006044820152606401610472565b6001600160a01b03831660008181526003602090815260408083208686039055600280548790039055518581529192917fddf252ad1be2c89b69c2b068fc378daa952ba7f163c4a11628f55a4df523b3ef910160405180910390a3505050565b6040805160208101909152600081526040518060200160405280600160701b846001600160701b031661221591906126ab565b6001600160e01b0316905292915050565b604080516020810190915260008152816001600160701b03166000036122875760405162461bcd60e51b81526020600482015260166024820152755551313132783131323a204449565f42595f5a45524f60501b6044820152606401610472565b6040518060200160405280836001600160701b031685600001516122ab91906126dd565b6001600160e01b031690529392505050565b6001600160a01b03811681146122d257600080fd5b50565b6000806000806000608086880312156122ed57600080fd5b85359450602086013593506040860135612306816122bd565b9250606086013567ffffffffffffffff8082111561232357600080fd5b818801915088601f83011261233757600080fd5b81358181111561234657600080fd5b89602082850101111561235857600080fd5b9699959850939650602001949392505050565b600060208083528351808285015260005b818110156123985785810183015185820160400152820161237c565b506000604082860101526040601f19601f8301168501019250505092915050565b600080604083850312156123cc57600080fd5b82356123d7816122bd565b946020939093013593505050565b6000806000606084860312156123fa57600080fd5b8335612405816122bd565b92506020840135612415816122bd565b929592945050506040919091013590565b6000806040838503121561243957600080fd5b8235612444816122bd565b91506020830135612454816122bd565b809150509250929050565b60006020828403121561247157600080fd5b8135612112816122bd565b600080600080600080600060e0888a03121561249757600080fd5b87356124a2816122bd565b965060208801356124b2816122bd565b95506040880135945060608801359350608088013560ff811681146124d657600080fd5b9699959850939692959460a0840135945060c09093013592915050565b6020808252600c908201526b141052548e881313d0d2d15160a21b604082015260600190565b60006020828403121561252b57600080fd5b8151801515811461211257600080fd5b60018060a01b038616815284602082015283604082015260806060820152816080820152818360a0830137600081830160a090810191909152601f909201601f19160101949350505050565b60006020828403121561259957600080fd5b5051919050565b634e487b7160e01b600052601160045260246000fd5b81810381811115610b9957610b996125a0565b8082028115828204841417610b9957610b996125a0565b600181811c908216806125f457607f821691505b60208210810361205357634e487b7160e01b600052602260045260246000fd5b634e487b7160e01b600052601260045260246000fd5b60008261263957612639612614565b500490565b600060018201612650576126506125a0565b5060010190565b63ffffffff828116828216039080821115612674576126746125a0565b5092915050565b80820180821115610b9957610b996125a0565b6000602082840312156126a057600080fd5b8151612112816122bd565b6001600160e01b038281168282168181028316929181158285048214176126d4576126d46125a0565b50505092915050565b60006001600160e01b03838116806126f7576126f7612614565b9216919091049291505056fea264697066735822122004d800eb49b32635a47bdc65f26b41fed7107738accc642d371695f00ed6c6a864736f6c63430008140033",
  "linkReferences": {},
  "deployedLinkReferences": {}
}