{
  "_format": "hh-sol-artifact-1",
  "contractName": "QuantumSwapRouter",
  "sourceName": "contracts/peripherals/QuantumSwapRouter.sol",
  "abi": [
    {
      "inputs": [
        {
          "internalType": "address",
          "name": "_factory",
          "type": "address"
        },
        {
          "internalType": "address",
          "name": "_weth",
          "type": "address"
        }
      ],
      "stateMutability": "nonpayable",
      "type": "constructor"
    },
    {
      "inputs": [],
      "name": "WETH",
      "outputs": [
        {
          "internalType": "address",
          "name": "",
          "type": "address"
        }
      ],
      "stateMutability": "view",
      "type": "function"
    },
    {
      "inputs": [
        {
          "internalType": "address",
          "name": "tokenA",
          "type": "address"
        },
        {
          "internalType": "address",
          "name": "tokenB",
          "type": "address"
        },
        {
          "internalType": "uint256",
          "name": "amountADesired",
          "type": "uint256"
        },
        {
          "internalType": "uint256",
          "name": "amountBDesired",
          "type": "uint256"
        },
        {
          "internalType": "uint256",
          "name": "amountAMin",
          "type": "uint256"
        },
        {
          "internalType": "uint256",
          "name": "amountBMin",
          "type": "uint256"
        },
        {
          "internalType": "address",
          "name": "to",
          "type": "address"
        },
        {
          "internalType": "uint256",
          "name": "deadline",
          "type": "uint256"
        }
      ],
      "name": "addLiquidity",
      "outputs": [
        {
          "internalType": "uint256",
          "name": "amountA",
          "type": "uint256"
        },
        {
          "internalType": "uint256",
          "name": "amountB",
          "type": "uint256"
        },
        {
          "internalType": "uint256",
          "name": "liquidity",
          "type": "uint256"
        }
      ],
      "stateMutability": "nonpayable",
      "type": "function"
    },
    {
      "inputs": [
        {
          "internalType": "address",
          "name": "token",
          "type": "address"
        },
        {
          "internalType": "uint256",
          "name": "amountTokenDesired",
          "type": "uint256"
        },
        {
          "internalType": "uint256",
          "name": "amountTokenMin",
          "type": "uint256"
        },
        {
          "internalType": "uint256",
          "name": "amountETHMin",
          "type": "uint256"
        },
        {
          "internalType": "address",
          "name": "to",
          "type": "address"
        },
        {
          "internalType": "uint256",
          "name": "deadline",
          "type": "uint256"
        }
      ],
      "name": "addLiquidityETH",
      "outputs": [
        {
          "internalType": "uint256",
          "name": "amountToken",
          "type": "uint256"
        },
        {
          "internalType": "uint256",
          "name": "amountETH",
          "type": "uint256"
        },
        {
          "internalType": "uint256",
          "name": "liquidity",
          "type": "uint256"
        }
      ],
      "stateMutability": "payable",
      "type": "function"
    },
    {
      "inputs": [],
      "name": "factory",
      "outputs": [
        {
          "internalType": "address",
          "name": "",
          "type": "address"
        }
      ],
      "stateMutability": "view",
      "type": "function"
    },
    {
      "inputs": [
        {
          "internalType": "uint256",
          "name": "amountOut",
          "type": "uint256"
        },
        {
          "internalType": "uint256",
          "name": "reserveIn",
          "type": "uint256"
        },
        {
          "internalType": "uint256",
          "name": "reserveOut",
          "type": "uint256"
        }
      ],
      "name": "getAmountIn",
      "outputs": [
        {
          "internalType": "uint256",
          "name": "amountIn",
          "type": "uint256"
        }
      ],
      "stateMutability": "pure",
      "type": "function"
    },
    {
      "inputs": [
        {
          "internalType": "uint256",
          "name": "amountIn",
          "type": "uint256"
        },
        {
          "internalType": "uint256",
          "name": "reserveIn",
          "type": "uint256"
        },
        {
          "internalType": "uint256",
          "name": "reserveOut",
          "type": "uint256"
        }
      ],
      "name": "getAmountOut",
      "outputs": [
        {
          "internalType": "uint256",
          "name": "amountOut",
          "type": "uint256"
        }
      ],
      "stateMutability": "pure",
      "type": "function"
    },
    {
      "inputs": [
        {
          "internalType": "uint256",
          "name": "amountOut",
          "type": "uint256"
        },
        {
          "internalType": "address[]",
          "name": "path",
          "type": "address[]"
        }
      ],
      "name": "getAmountsIn",
      "outputs": [
        {
          "internalType": "uint256[]",
          "name": "amounts",
          "type": "uint256[]"
        }
      ],
      "stateMutability": "view",
      "type": "function"
    },
    {
      "inputs": [
        {
          "internalType": "uint256",
          "name": "amountIn",
          "type": "uint256"
        },
        {
          "internalType": "address[]",
          "name": "path",
          "type": "address[]"
        }
      ],
      "name": "getAmountsOut",
      "outputs": [
        {
          "internalType": "uint256[]",
          "name": "amounts",
          "type": "uint256[]"
        }
      ],
      "stateMutability": "view",
      "type": "function"
    },
    {
      "inputs": [
        {
          "internalType": "uint256",
          "name": "amountA",
          "type": "uint256"
        },
        {
          "internalType": "uint256",
          "name": "reserveA",
          "type": "uint256"
        },
        {
          "internalType": "uint256",
          "name": "reserveB",
          "type": "uint256"
        }
      ],
      "name": "quote",
      "outputs": [
        {
          "internalType": "uint256",
          "name": "amountB",
          "type": "uint256"
        }
      ],
      "stateMutability": "pure",
      "type": "function"
    },
    {
      "inputs": [
        {
          "internalType": "address",
          "name": "tokenA",
          "type": "address"
        },
        {
          "internalType": "address",
          "name": "tokenB",
          "type": "address"
        },
        {
          "internalType": "uint256",
          "name": "liquidity",
          "type": "uint256"
        },
        {
          "internalType": "uint256",
          "name": "amountAMin",
          "type": "uint256"
        },
        {
          "internalType": "uint256",
          "name": "amountBMin",
          "type": "uint256"
        },
        {
          "internalType": "address",
          "name": "to",
          "type": "address"
        },
        {
          "internalType": "uint256",
          "name": "deadline",
          "type": "uint256"
        }
      ],
      "name": "removeLiquidity",
      "outputs": [
        {
          "internalType": "uint256",
          "name": "amountA",
          "type": "uint256"
        },
        {
          "internalType": "uint256",
          "name": "amountB",
          "type": "uint256"
        }
      ],
      "stateMutability": "nonpayable",
      "type": "function"
    },
    {
      "inputs": [
        {
          "internalType": "address",
          "name": "token",
          "type": "address"
        },
        {
          "internalType": "uint256",
          "name": "liquidity",
          "type": "uint256"
        },
        {
          "internalType": "uint256",
          "name": "amountTokenMin",
          "type": "uint256"
        },
        {
          "internalType": "uint256",
          "name": "amountETHMin",
          "type": "uint256"
        },
        {
          "internalType": "address",
          "name": "to",
          "type": "address"
        },
        {
          "internalType": "uint256",
          "name": "deadline",
          "type": "uint256"
        }
      ],
      "name": "removeLiquidityETH",
      "outputs": [
        {
          "internalType": "uint256",
          "name": "amountToken",
          "type": "uint256"
        },
        {
          "internalType": "uint256",
          "name": "amountETH",
          "type": "uint256"
        }
      ],
      "stateMutability": "nonpayable",
      "type": "function"
    },
    {
      "inputs": [
        {
          "internalType": "uint256",
          "name": "amountOutMin",
          "type": "uint256"
        },
        {
          "internalType": "address[]",
          "name": "path",
          "type": "address[]"
        },
        {
          "internalType": "address",
          "name": "to",
          "type": "address"
        },
        {
          "internalType": "uint256",
          "name": "deadline",
          "type": "uint256"
        }
      ],
      "name": "swapExactETHForTokens",
      "outputs": [
        {
          "internalType": "uint256[]",
          "name": "amounts",
          "type": "uint256[]"
        }
      ],
      "stateMutability": "payable",
      "type": "function"
    },
    {
      "inputs": [
        {
          "internalType": "uint256",
          "name": "amountIn",
          "type": "uint256"
        },
        {
          "internalType": "uint256",
          "name": "amountOutMin",
          "type": "uint256"
        },
        {
          "internalType": "address[]",
          "name": "path",
          "type": "address[]"
        },
        {
          "internalType": "address",
          "name": "to",
          "type": "address"
        },
        {
          "internalType": "uint256",
          "name": "deadline",
          "type": "uint256"
        }
      ],
      "name": "swapExactTokensForETH",
      "outputs": [
        {
          "internalType": "uint256[]",
          "name": "amounts",
          "type": "uint256[]"
        }
      ],
      "stateMutability": "nonpayable",
      "type": "function"
    },
    {
      "inputs": [
        {
          "internalType": "uint256",
          "name": "amountIn",
          "type": "uint256"
        },
        {
          "internalType": "uint256",
          "name": "amountOutMin",
          "type": "uint256"
        },
        {
          "internalType": "address[]",
          "name": "path",
          "type": "address[]"
        },
        {
          "internalType": "address",
          "name": "to",
          "type": "address"
        },
        {
          "internalType": "uint256",
          "name": "deadline",
          "type": "uint256"
        }
      ],
      "name": "swapExactTokensForTokens",
      "outputs": [
        {
          "internalType": "uint256[]",
          "name": "amounts",
          "type": "uint256[]"
        }
      ],
      "stateMutability": "nonpayable",
      "type": "function"
    },
    {
      "inputs": [
        {
          "internalType": "uint256",
          "name": "amountOut",
          "type": "uint256"
        },
        {
          "internalType": "uint256",
          "name": "amountInMax",
          "type": "uint256"
        },
        {
          "internalType": "address[]",
          "name": "path",
          "type": "address[]"
        },
        {
          "internalType": "address",
          "name": "to",
          "type": "address"
        },
        {
          "internalType": "uint256",
          "name": "deadline",
          "type": "uint256"
        }
      ],
      "name": "swapTokensForExactETH",
      "outputs": [
        {
          "internalType": "uint256[]",
          "name": "amounts",
          "type": "uint256[]"
        }
      ],
      "stateMutability": "nonpayable",
      "type": "function"
    },
    {
      "inputs": [
        {
          "internalType": "uint256",
          "name": "amountOut",
          "type": "uint256"
        },
        {
          "internalType": "uint256",
          "name": "amountInMax",
          "type": "uint256"
        },
        {
          "internalType": "address[]",
          "name": "path",
          "type": "address[]"
        },
        {
          "internalType": "address",
          "name": "to",
          "type": "address"
        },
        {
          "internalType": "uint256",
          "name": "deadline",
          "type": "uint256"
        }
      ],
      "name": "swapTokensForExactTokens",
      "outputs": [
        {
          "internalType": "uint256[]",
          "name": "amounts",
          "type": "uint256[]"
        }
      ],
      "stateMutability": "nonpayable",
      "type": "function"
    },
    {
      "stateMutability": "payable",
      "type": "receive"
    }
  ],
  "bytecode": "0x60c06040523480156200001157600080fd5b5060405162002c7538038062002c758339810160408190526200003491620000db565b6001600160a01b038216158015906200005557506001600160a01b03811615155b620000a65760405162461bcd60e51b815260206004820152601460248201527f526f757465723a205a45524f5f41444452455353000000000000000000000000604482015260640160405180910390fd5b6001600160a01b039182166080521660a05262000113565b80516001600160a01b0381168114620000d657600080fd5b919050565b60008060408385031215620000ef57600080fd5b620000fa83620000be565b91506200010a60208401620000be565b90509250929050565b60805160a051612acc620001a960003960008181610107015281816102d20152818161041a015281816104c60152818161058d015281816106e3015281816108f401528181610bdd01528181610d4c01528181610e7901528181610f0a015281816113410152818161137e01526113f501526000818161035e015281816115600152818161217d015261221f0152612acc6000f3fe6080604052600436106100f75760003560e01c80638803dbee1161008a578063c45a015511610059578063c45a01551461034c578063d06ca61f14610380578063e8e33700146103a0578063f305d719146103db57600080fd5b80638803dbee146102a0578063ad5c4648146102c0578063ad615dec1461030c578063baa2abde1461032c57600080fd5b806338ed1739116100c657806338ed17391461022d5780634a25d94a1461024d5780637ff36ab51461026d57806385f8c2591461028057600080fd5b806302751cec14610178578063054d50d4146101b257806318cbafe5146101e05780631f00ca741461020d57600080fd5b3661017357336001600160a01b037f000000000000000000000000000000000000000000000000000000000000000016146101715760405162461bcd60e51b81526020600482015260156024820152740a4deeae8cae474408aa890be9e9c98b2beae8aa89605b1b60448201526064015b60405180910390fd5b005b600080fd5b34801561018457600080fd5b50610198610193366004612467565b6103ee565b604080519283526020830191909152015b60405180910390f35b3480156101be57600080fd5b506101d26101cd3660046124c5565b6106a1565b6040519081526020016101a9565b3480156101ec57600080fd5b506102006101fb366004612536565b6106b6565b6040516101a991906125a9565b34801561021957600080fd5b506102006102283660046125ed565b610a69565b34801561023957600080fd5b50610200610248366004612536565b610aa8565b34801561025957600080fd5b50610200610268366004612536565b610bb0565b61020061027b366004612639565b610d27565b34801561028c57600080fd5b506101d261029b3660046124c5565b610fd0565b3480156102ac57600080fd5b506102006102bb366004612536565b610fdd565b3480156102cc57600080fd5b506102f47f000000000000000000000000000000000000000000000000000000000000000081565b6040516001600160a01b0390911681526020016101a9565b34801561031857600080fd5b506101d26103273660046124c5565b6110a3565b34801561033857600080fd5b506101986103473660046126a0565b6110b0565b34801561035857600080fd5b506102f47f000000000000000000000000000000000000000000000000000000000000000081565b34801561038c57600080fd5b5061020061039b3660046125ed565b611201565b3480156103ac57600080fd5b506103c06103bb366004612712565b611240565b604080519384526020840192909252908201526060016101a9565b6103c06103e9366004612467565b611313565b60008082804211156104125760405162461bcd60e51b81526004016101689061278e565b600061043e8a7f0000000000000000000000000000000000000000000000000000000000000000611536565b905061044c8133838c6115d4565b60405163226bf2d160e21b815230600482015260009081906001600160a01b038416906389afcb449060240160408051808303816000875af1158015610496573d6000803e3d6000fd5b505050506040513d601f19601f820116820180604052508101906104ba91906127bc565b9150915060006104ea8d7f00000000000000000000000000000000000000000000000000000000000000006116f8565b509050806001600160a01b03168d6001600160a01b03161461050d578183610510565b82825b90975095508a87108015906105255750898610155b61056c5760405162461bcd60e51b8152602060048201526018602482015277149bdd5d195c8e88125394d551919250d251539517d3d55560421b6044820152606401610168565b6105778d8a896117d8565b604051632e1a7d4d60e01b8152600481018790527f00000000000000000000000000000000000000000000000000000000000000006001600160a01b031690632e1a7d4d90602401600060405180830381600087803b1580156105d957600080fd5b505af11580156105ed573d6000803e3d6000fd5b505050506000896001600160a01b03168760405160006040518083038185875af1925050503d806000811461063e576040519150601f19603f3d011682016040523d82523d6000602084013e610643565b606091505b50509050806106905760405162461bcd60e51b8152602060048201526019602482015278149bdd5d195c8e8811551217d514905394d1915497d1905253603a1b6044820152606401610168565b505050505050965096945050505050565b60006106ae8484846118f3565b949350505050565b606081804211156106d95760405162461bcd60e51b81526004016101689061278e565b6001600160a01b037f00000000000000000000000000000000000000000000000000000000000000001686866107106001826127f6565b81811061071f5761071f61280f565b90506020020160208101906107349190612825565b6001600160a01b03161461078a5760405162461bcd60e51b815260206004820152601a60248201527f526f757465723a20504154485f4d5553545f454e445f574554480000000000006044820152606401610168565b6107c7888787808060200260200160405190810160405280939291908181526020018383602002808284376000920191909152506119be92505050565b91508682600184516107d991906127f6565b815181106107e9576107e961280f565b6020026020010151101561080f5760405162461bcd60e51b815260040161016890612842565b6108b3868660008181106108255761082561280f565b905060200201602081019061083a9190612825565b33610893898960008181106108515761085161280f565b90506020020160208101906108669190612825565b8a8a60018181106108795761087961280f565b905060200201602081019061088e9190612825565b611536565b856000815181106108a6576108a661280f565b60200260200101516115d4565b6108f282878780806020026020016040519081016040528093929190818152602001838360200280828437600092019190915250309250611c07915050565b7f00000000000000000000000000000000000000000000000000000000000000006001600160a01b0316632e1a7d4d836001855161093091906127f6565b815181106109405761094061280f565b60200260200101516040518263ffffffff1660e01b815260040161096691815260200190565b600060405180830381600087803b15801561098057600080fd5b505af1158015610994573d6000803e3d6000fd5b505050506000846001600160a01b031683600185516109b391906127f6565b815181106109c3576109c361280f565b602002602001015160405160006040518083038185875af1925050503d8060008114610a0b576040519150601f19603f3d011682016040523d82523d6000602084013e610a10565b606091505b5050905080610a5d5760405162461bcd60e51b8152602060048201526019602482015278149bdd5d195c8e8811551217d514905394d1915497d1905253603a1b6044820152606401610168565b50509695505050505050565b60606106ae84848480806020026020016040519081016040528093929190818152602001838360200280828437600092019190915250611dce92505050565b60608180421115610acb5760405162461bcd60e51b81526004016101689061278e565b610b08888787808060200260200160405190810160405280939291908181526020018383602002808284376000920191909152506119be92505050565b9150868260018451610b1a91906127f6565b81518110610b2a57610b2a61280f565b60200260200101511015610b505760405162461bcd60e51b815260040161016890612842565b610b66868660008181106108255761082561280f565b610ba582878780806020026020016040519081016040528093929190818152602001838360200280828437600092019190915250899250611c07915050565b509695505050505050565b60608180421115610bd35760405162461bcd60e51b81526004016101689061278e565b6001600160a01b037f0000000000000000000000000000000000000000000000000000000000000000168686610c0a6001826127f6565b818110610c1957610c1961280f565b9050602002016020810190610c2e9190612825565b6001600160a01b031614610c845760405162461bcd60e51b815260206004820152601a60248201527f526f757465723a20504154485f4d5553545f454e445f574554480000000000006044820152606401610168565b610cc188878780806020026020016040519081016040528093929190818152602001838360200280828437600092019190915250611dce92505050565b91508682600081518110610cd757610cd761280f565b6020026020010151111561080f5760405162461bcd60e51b8152602060048201526017602482015276149bdd5d195c8e88115610d154d4d2559157d253941555604a1b6044820152606401610168565b60608180421115610d4a5760405162461bcd60e51b81526004016101689061278e565b7f00000000000000000000000000000000000000000000000000000000000000006001600160a01b031686866000818110610d8757610d8761280f565b9050602002016020810190610d9c9190612825565b6001600160a01b031614610df25760405162461bcd60e51b815260206004820152601c60248201527f526f757465723a20504154485f4d5553545f53544152545f57455448000000006044820152606401610168565b610e2f348787808060200260200160405190810160405280939291908181526020018383602002808284376000920191909152506119be92505050565b9150868260018451610e4191906127f6565b81518110610e5157610e5161280f565b60200260200101511015610e775760405162461bcd60e51b815260040161016890612842565b7f00000000000000000000000000000000000000000000000000000000000000006001600160a01b031663d0e30db083600081518110610eb957610eb961280f565b60200260200101516040518263ffffffff1660e01b81526004016000604051808303818588803b158015610eec57600080fd5b505af1158015610f00573d6000803e3d6000fd5b5050505050610f877f0000000000000000000000000000000000000000000000000000000000000000610f6788886000818110610f3f57610f3f61280f565b9050602002016020810190610f549190612825565b898960018181106108795761087961280f565b84600081518110610f7a57610f7a61280f565b60200260200101516117d8565b610fc682878780806020026020016040519081016040528093929190818152602001838360200280828437600092019190915250899250611c07915050565b5095945050505050565b60006106ae84848461201b565b606081804211156110005760405162461bcd60e51b81526004016101689061278e565b61103d88878780806020026020016040519081016040528093929190818152602001838360200280828437600092019190915250611dce92505050565b915086826000815181106110535761105361280f565b60200260200101511115610b505760405162461bcd60e51b8152602060048201526017602482015276149bdd5d195c8e88115610d154d4d2559157d253941555604a1b6044820152606401610168565b60006106ae8484846120bb565b60008082804211156110d45760405162461bcd60e51b81526004016101689061278e565b60006110e08b8b611536565b90506110ee8133838c6115d4565b60405163226bf2d160e21b81526001600160a01b03878116600483015260009182918416906389afcb449060240160408051808303816000875af115801561113a573d6000803e3d6000fd5b505050506040513d601f19601f8201168201806040525081019061115e91906127bc565b91509150600061116e8e8e6116f8565b509050806001600160a01b03168e6001600160a01b031614611191578183611194565b82825b90975095508a87108015906111a95750898610155b6111f05760405162461bcd60e51b8152602060048201526018602482015277149bdd5d195c8e88125394d551919250d251539517d3d55560421b6044820152606401610168565b505050505097509795505050505050565b60606106ae848484808060200260200160405190810160405280939291908181526020018383602002808284376000920191909152506119be92505050565b600080600083804211156112665760405162461bcd60e51b81526004016101689061278e565b60006112768d8d8d8d8d8d61214d565b919650945090506112898d3383886115d4565b6112958c3383876115d4565b6040516335313c2160e11b81526001600160a01b038881166004830152821690636a627842906024016020604051808303816000875af11580156112dd573d6000803e3d6000fd5b505050506040513d601f19601f820116820180604052508101906113019190612879565b92505050985098509895505050505050565b600080600083804211156113395760405162461bcd60e51b81526004016101689061278e565b60006113698b7f00000000000000000000000000000000000000000000000000000000000000008c348d8d61214d565b9196509450905061137c8b3383886115d4565b7f00000000000000000000000000000000000000000000000000000000000000006001600160a01b031663d0e30db0856040518263ffffffff1660e01b81526004016000604051808303818588803b1580156113d757600080fd5b505af11580156113eb573d6000803e3d6000fd5b505050505061141b7f000000000000000000000000000000000000000000000000000000000000000082866117d8565b6040516335313c2160e11b81526001600160a01b038881166004830152821690636a627842906024016020604051808303816000875af1158015611463573d6000803e3d6000fd5b505050506040513d601f19601f820116820180604052508101906114879190612879565b9250833411156115285760003361149e86346127f6565b604051600081818185875af1925050503d80600081146114da576040519150601f19603f3d011682016040523d82523d6000602084013e6114df565b606091505b50509050806115265760405162461bcd60e51b8152602060048201526013602482015272149bdd5d195c8e8814915195539117d1905253606a1b6044820152606401610168565b505b505096509650969350505050565b60405163e6a4390560e01b81526001600160a01b03838116600483015282811660248301526000917f00000000000000000000000000000000000000000000000000000000000000009091169063e6a4390590604401602060405180830381865afa1580156115a9573d6000803e3d6000fd5b505050506040513d601f19601f820116820180604052508101906115cd9190612892565b9392505050565b604080516001600160a01b0385811660248301528481166044830152606480830185905283518084039091018152608490920183526020820180516001600160e01b03166323b872dd60e01b179052915160009283929088169161163891906128d3565b6000604051808303816000865af19150503d8060008114611675576040519150601f19603f3d011682016040523d82523d6000602084013e61167a565b606091505b50915091508180156116a45750805115806116a45750808060200190518101906116a491906128ef565b6116f05760405162461bcd60e51b815260206004820152601c60248201527f526f757465723a205452414e534645525f46524f4d5f4641494c4544000000006044820152606401610168565b505050505050565b600080826001600160a01b0316846001600160a01b03160361175c5760405162461bcd60e51b815260206004820152601b60248201527f526f757465723a204944454e544943414c5f41444452455353455300000000006044820152606401610168565b826001600160a01b0316846001600160a01b03161061177c57828461177f565b83835b90925090506001600160a01b0382166117d15760405162461bcd60e51b8152602060048201526014602482015273526f757465723a205a45524f5f4144445245535360601b6044820152606401610168565b9250929050565b604080516001600160a01b038481166024830152604480830185905283518084039091018152606490920183526020820180516001600160e01b031663a9059cbb60e01b179052915160009283929087169161183491906128d3565b6000604051808303816000865af19150503d8060008114611871576040519150601f19603f3d011682016040523d82523d6000602084013e611876565b606091505b50915091508180156118a05750805115806118a05750808060200190518101906118a091906128ef565b6118ec5760405162461bcd60e51b815260206004820152601760248201527f526f757465723a205452414e534645525f4641494c45440000000000000000006044820152606401610168565b5050505050565b60008084116119445760405162461bcd60e51b815260206004820152601a60248201527f526f757465723a20494e53554646494349454e545f494e5055540000000000006044820152606401610168565b6000831180156119545750600082115b6119705760405162461bcd60e51b815260040161016890612911565b600061197e856103e5612948565b9050600061198c8483612948565b905060008261199d876103e8612948565b6119a7919061295f565b90506119b38183612972565b979650505050505050565b6060815167ffffffffffffffff8111156119da576119da612994565b604051908082528060200260200182016040528015611a03578160200160208202803683370190505b5090508281600081518110611a1a57611a1a61280f565b60200260200101818152505060005b60018351611a3791906127f6565b811015611c00576000838281518110611a5257611a5261280f565b60200260200101519050600084836001611a6c919061295f565b81518110611a7c57611a7c61280f565b602002602001015190506000611a928383611536565b90506001600160a01b038116611ae45760405162461bcd60e51b8152602060048201526017602482015276526f757465723a20504149525f4e4f545f45584953545360481b6044820152606401610168565b6000611af084846116f8565b509050600080836001600160a01b0316630902f1ac6040518163ffffffff1660e01b8152600401606060405180830381865afa158015611b34573d6000803e3d6000fd5b505050506040513d601f19601f82011682018060405250810190611b5891906129c6565b5091509150600080846001600160a01b0316886001600160a01b031614611b80578284611b83565b83835b6001600160701b031691506001600160701b03169150611bbd8a8a81518110611bae57611bae61280f565b602002602001015183836118f3565b8a611bc98b600161295f565b81518110611bd957611bd961280f565b60200260200101818152505050505050505050508080611bf890612a16565b915050611a29565b5092915050565b60005b60018351611c1891906127f6565b811015611dc8576000838281518110611c3357611c3361280f565b60200260200101519050600084836001611c4d919061295f565b81518110611c5d57611c5d61280f565b602002602001015190506000611c7383836116f8565b509050600087611c8486600161295f565b81518110611c9457611c9461280f565b60200260200101519050600080836001600160a01b0316866001600160a01b031614611cc257826000611cc6565b6000835b91509150600060028a51611cda91906127f6565b8810611ce65788611d13565b611d13868b611cf68b600261295f565b81518110611d0657611d0661280f565b6020026020010151611536565b9050611d1f8787611536565b6001600160a01b031663022c0d9f84848460006040519080825280601f01601f191660200182016040528015611d5c576020820181803683370190505b506040518563ffffffff1660e01b8152600401611d7c9493929190612a2f565b600060405180830381600087803b158015611d9657600080fd5b505af1158015611daa573d6000803e3d6000fd5b50505050505050505050508080611dc090612a16565b915050611c0a565b50505050565b6060815167ffffffffffffffff811115611dea57611dea612994565b604051908082528060200260200182016040528015611e13578160200160208202803683370190505b509050828160018351611e2691906127f6565b81518110611e3657611e3661280f565b602002602001018181525050600060018351611e5291906127f6565b90505b8015611c0057600083611e696001846127f6565b81518110611e7957611e7961280f565b602002602001015190506000848381518110611e9757611e9761280f565b602002602001015190506000611ead8383611536565b90506001600160a01b038116611eff5760405162461bcd60e51b8152602060048201526017602482015276526f757465723a20504149525f4e4f545f45584953545360481b6044820152606401610168565b6000611f0b84846116f8565b509050600080836001600160a01b0316630902f1ac6040518163ffffffff1660e01b8152600401606060405180830381865afa158015611f4f573d6000803e3d6000fd5b505050506040513d601f19601f82011682018060405250810190611f7391906129c6565b5091509150600080846001600160a01b0316886001600160a01b031614611f9b578284611f9e565b83835b6001600160701b031691506001600160701b03169150611fd88a8a81518110611fc957611fc961280f565b6020026020010151838361201b565b8a611fe460018c6127f6565b81518110611ff457611ff461280f565b6020026020010181815250505050505050505050808061201390612a7f565b915050611e55565b600080841161203c5760405162461bcd60e51b815260040161016890612842565b60008311801561204c5750600082115b6120685760405162461bcd60e51b815260040161016890612911565b60006120748585612948565b612080906103e8612948565b9050600061208e86856127f6565b61209a906103e5612948565b90506120a68183612972565b6120b190600161295f565b9695505050505050565b600080841161210c5760405162461bcd60e51b815260206004820152601b60248201527f526f757465723a20494e53554646494349454e545f414d4f554e5400000000006044820152606401610168565b60008311801561211c5750600082115b6121385760405162461bcd60e51b815260040161016890612911565b826121438386612948565b6106ae9190612972565b60405163e6a4390560e01b81526001600160a01b03878116600483015286811660248301526000918291829182917f0000000000000000000000000000000000000000000000000000000000000000169063e6a4390590604401602060405180830381865afa1580156121c4573d6000803e3d6000fd5b505050506040513d601f19601f820116820180604052508101906121e89190612892565b90506001600160a01b03811661228f576040516364e329cb60e11b81526001600160a01b038b811660048301528a811660248301527f0000000000000000000000000000000000000000000000000000000000000000169063c9c65396906044016020604051808303816000875af1158015612268573d6000803e3d6000fd5b505050506040513d601f19601f8201168201806040525081019061228c9190612892565b90505b809150600080836001600160a01b0316630902f1ac6040518163ffffffff1660e01b8152600401606060405180830381865afa1580156122d3573d6000803e3d6000fd5b505050506040513d601f19601f820116820180604052508101906122f791906129c6565b509150915060006123088d8d6116f8565b509050600080826001600160a01b03168f6001600160a01b03161461232e578385612331565b84845b6001600160701b031691506001600160701b03169150816000148015612355575080155b15612365578c98508b975061243d565b60006123728e84846120bb565b90508c81116123d6578a8110156123cb5760405162461bcd60e51b815260206004820152601b60248201527f526f757465723a20494e53554646494349454e545f425f424d494e00000000006044820152606401610168565b8d995097508761243b565b60006123e38e84866120bb565b90508c8110156124355760405162461bcd60e51b815260206004820152601b60248201527f526f757465723a20494e53554646494349454e545f415f414d494e00000000006044820152606401610168565b99508c98505b505b50505050505096509650969350505050565b6001600160a01b038116811461246457600080fd5b50565b60008060008060008060c0878903121561248057600080fd5b863561248b8161244f565b955060208701359450604087013593506060870135925060808701356124b08161244f565b8092505060a087013590509295509295509295565b6000806000606084860312156124da57600080fd5b505081359360208301359350604090920135919050565b60008083601f84011261250357600080fd5b50813567ffffffffffffffff81111561251b57600080fd5b6020830191508360208260051b85010111156117d157600080fd5b60008060008060008060a0878903121561254f57600080fd5b8635955060208701359450604087013567ffffffffffffffff81111561257457600080fd5b61258089828a016124f1565b90955093505060608701356125948161244f565b80925050608087013590509295509295509295565b6020808252825182820181905260009190848201906040850190845b818110156125e1578351835292840192918401916001016125c5565b50909695505050505050565b60008060006040848603121561260257600080fd5b83359250602084013567ffffffffffffffff81111561262057600080fd5b61262c868287016124f1565b9497909650939450505050565b60008060008060006080868803121561265157600080fd5b85359450602086013567ffffffffffffffff81111561266f57600080fd5b61267b888289016124f1565b909550935050604086013561268f8161244f565b949793965091946060013592915050565b600080600080600080600060e0888a0312156126bb57600080fd5b87356126c68161244f565b965060208801356126d68161244f565b955060408801359450606088013593506080880135925060a08801356126fb8161244f565b8092505060c0880135905092959891949750929550565b600080600080600080600080610100898b03121561272f57600080fd5b883561273a8161244f565b9750602089013561274a8161244f565b965060408901359550606089013594506080890135935060a0890135925060c08901356127768161244f565b8092505060e089013590509295985092959890939650565b602080825260149082015273145d585b9d1d5b54ddd85c0e881156141254915160621b604082015260600190565b600080604083850312156127cf57600080fd5b505080516020909101519092909150565b634e487b7160e01b600052601160045260246000fd5b81810381811115612809576128096127e0565b92915050565b634e487b7160e01b600052603260045260246000fd5b60006020828403121561283757600080fd5b81356115cd8161244f565b6020808252601b908201527f526f757465723a20494e53554646494349454e545f4f55545055540000000000604082015260600190565b60006020828403121561288b57600080fd5b5051919050565b6000602082840312156128a457600080fd5b81516115cd8161244f565b60005b838110156128ca5781810151838201526020016128b2565b50506000910152565b600082516128e58184602087016128af565b9190910192915050565b60006020828403121561290157600080fd5b815180151581146115cd57600080fd5b6020808252601e908201527f526f757465723a20494e53554646494349454e545f4c49515549444954590000604082015260600190565b8082028115828204841417612809576128096127e0565b80820180821115612809576128096127e0565b60008261298f57634e487b7160e01b600052601260045260246000fd5b500490565b634e487b7160e01b600052604160045260246000fd5b80516001600160701b03811681146129c157600080fd5b919050565b6000806000606084860312156129db57600080fd5b6129e4846129aa565b92506129f2602085016129aa565b9150604084015163ffffffff81168114612a0b57600080fd5b809150509250925092565b600060018201612a2857612a286127e0565b5060010190565b84815283602082015260018060a01b03831660408201526080606082015260008251806080840152612a688160a08501602087016128af565b601f01601f19169190910160a00195945050505050565b600081612a8e57612a8e6127e0565b50600019019056fea264697066735822122085435b58c1312bd69beb57aeb4257df7129462b71045cc5ef581cf69bda00b1264736f6c63430008140033",
  "linkReferences": {},
  "deployedLinkReferences": {}
}